202401101422SEVNET7TWO Metro                              STARCOStarcom Mediavest Group                                 000078000035850000                                        Lisa Norling                  lnorling@seven.com.au                                                                                         Ashleigh Smith                ashleigh.smith@starcomww.com                                          
PAGAUSProcter & Gamble Australia Pty          2PGPANPantene                                 ATN2  7TWO Sydney                                                                                         0000304566-000000106                    0000304566-00000010620240324               NYNNNNN19302030                            0000001500000077000000006930                                        Doc Martin (Sh*T Happens)                                                                                                                           PR    W40+           011W18+           006               000               000  //
PAGAUSProcter & Gamble Australia Pty          2PGPANPantene                                 ATN2  7TWO Sydney                                                                                         0000304566-000000108                    0000304566-00000010820240324               NYNNNNN20302245                            0000001500000057000000005130                                        Foyle's War (German Woman, The)                                                                                                                     PR    W40+           012W18+           007               000               000  //
PAGAUSProcter & Gamble Australia Pty          2PGPANPantene                                 ATN2  7TWO Sydney                                                                                         0000304566-000000109                    0000304566-00000010920240324               NNNYNNN20452245                            0000001500000037000000003330                                        Lewis (Intelligent Design)                                                                                                                          PR    W40+           012W18+           008               000               000  //
PAGAUSProcter & Gamble Australia Pty          2PGPANPantene                                 ATN2  7TWO Sydney                                                                                         0000304566-000000110                    0000304566-00000011020240324               NNNNYNN19302030                            0000001500000058000000005220                                        Father Brown (The Chedworth Cyclone)                                                                                                                PR    W40+           007W18+           004               000               000  //
PAGAUSProcter & Gamble Australia Pty          2PGPANPantene                                 ATN2  7TWO Sydney                                                                                         0000304566-000000111                    0000304566-00000011120240324               NNNNYNN20302130                            0000001500000083000000007470                                        Coroner, The (That's The Way To Do It)                                                                                                              PR    W40+           006W18+           004               000               000  //
PAGAUSProcter & Gamble Australia Pty          2PGPANPantene                                 HSV2  7TWO Melbourne                                                                                      0000304566-000000118                    0000304566-00000011820240324               YNNNNNN18301930                            0000001500000039000000003510                                        Escape To The Country                                                                                                                               PR    W40+           004W18+           003               000               000  //
PAGAUSProcter & Gamble Australia Pty          2PGPANPantene                                 HSV2  7TWO Melbourne                                                                                      0000304566-000000119                    0000304566-00000011920240324               NYNNNNN19302030                            0000001500000065000000005850                                        Doc Martin (Sh*T Happens)                                                                                                                           PR    W40+           012W18+           007               000               000  //
PAGAUSProcter & Gamble Australia Pty          2PGPANPantene                                 HSV2  7TWO Melbourne                                                                                      0000304566-000000122                    0000304566-00000012220240324               NYNNNNN19302030                            0000001500000065000000005850                                        Doc Martin                                                                                                                                          PR    W40+           012W18+           007               000               000  //
PAGAUSProcter & Gamble Australia Pty          2PGPANPantene                                 HSV2  7TWO Melbourne                                                                                      0000304566-000000123                    0000304566-00000012320240324               NNNYNNN19302030                            0000001500000035000000003150                                        Heartbeat                                                                                                                                           PR    W40+           009W18+           006               000               000  //
PAGAUSProcter & Gamble Australia Pty          2PGPANPantene                                 HSV2  7TWO Melbourne                                                                                      0000304566-000000124                    0000304566-00000012420240324               NNNYNNN20452245                            0000001500000041000000003690                                        Lewis (Intelligent Design)                                                                                                                          PR    W40+           014W18+           008               000               000  //
PAGAUSProcter & Gamble Australia Pty          2PGPANPantene                                 HSV2  7TWO Melbourne                                                                                      0000304566-000000125                    0000304566-00000012520240324               NNNNYNN18301930                            0000001500000038000000003420                                        Bargain Hunt                                                                                                                                        PR    W40+           008W18+           005               000               000  //
PAGAUSProcter & Gamble Australia Pty          2PGPANPantene                                 HSV2  7TWO Melbourne                                                                                      0000304566-000000126                    0000304566-00000012620240324               NNNNYNN19302030                            0000001500000040000000003600                                        Father Brown (The Chedworth Cyclone)                                                                                                                PR    W40+           017W18+           010               000               000  //
PAGAUSProcter & Gamble Australia Pty          2PGPANPantene                                 HSV2  7TWO Melbourne                                                                                      0000304566-000000128                    0000304566-00000012820240324               NNNNNYN19302000                            0000001500000040000000003600                                        OB Doc                                                                                                                                              PR    W40+           011W18+           007               000               000  //
PAGAUSProcter & Gamble Australia Pty          2PGPANPantene                                 HSV2  7TWO Melbourne                                                                                      0000304566-000000129                    0000304566-00000012920240324               NNNNNYN20302130                            0000001500000037000000003330                                        Escape To The Country (Devon)                                                                                                                       PR    W40+           014W18+           008               000               000  //
PAGAUSProcter & Gamble Australia Pty          2PGPANPantene                                 HSV2  7TWO Melbourne                                                                                      0000304566-000000130                    0000304566-00000013020240324               NNNNNNY19302030                            0000001500000039000000003510                                        Yorkshire Vet, The (Yorkshire Vet, The S                                                                                                            PR    W40+           011W18+           007               000               000  //
PAGAUSProcter & Gamble Australia Pty          2PGPANPantene                                 BTQ2  7TWO Brisbane                                                                                       0000304566-000000131                    0000304566-00000013120240324               YNNNNNN19402020                            0000001500000034000000003060                                        Vicar Of Dibley, The (Love And Marriage)                                                                                                            PR    W40+           007W18+           005               000               000  //
PAGAUSProcter & Gamble Australia Pty          2PGPANPantene                                 BTQ2  7TWO Brisbane                                                                                       0000304566-000000132                    0000304566-00000013220240324               YNNNNNN20202135                            0000001500000043000000003870                                        Call The Midwife (Call The Midwife S4 Ep                                                                                                            PR    W40+           007W18+           005               000               000  //
PAGAUSProcter & Gamble Australia Pty          2PGPANPantene                                 BTQ2  7TWO Brisbane                                                                                       0000304566-000000133                    0000304566-00000013320240324               YNNNNNN20302130                            0000001500000046000000004140                                        Call the Midwife                                                                                                                                    PR    W40+           007W18+           004               000               000  //
PAGAUSProcter & Gamble Australia Pty          2PGPANPantene                                 BTQ2  7TWO Brisbane                                                                                       0000304566-000000134                    0000304566-00000013420240324               NNYNNNN18301930                            0000001500000034000000003060                                        Bargain Hunt (Leominster / Hay 6)                                                                                                                   PR    W40+           006W18+           004               000               000  //
PAGAUSProcter & Gamble Australia Pty          2PGPANPantene                                 BTQ2  7TWO Brisbane                                                                                       0000304566-000000135                    0000304566-00000013520240324               NNYNNNN18301930                            0000001500000034000000003060                                        Bargain Hunt                                                                                                                                        PR    W40+           006W18+           004               000               000  //
PAGAUSProcter & Gamble Australia Pty          2PGPANPantene                                 BTQ2  7TWO Brisbane                                                                                       0000304566-000000139                    0000304566-00000013920240324               NNNYNNN19302030                            0000001500000038000000003420                                        Heartbeat                                                                                                                                           PR    W40+           007W18+           004               000               000  //
PAGAUSProcter & Gamble Australia Pty          2PGPANPantene                                 BTQ2  7TWO Brisbane                                                                                       0000304566-000000140                    0000304566-00000014020240324               NNNNNYN19302000                            0000001500000047000000004230                                        OB Doc                                                                                                                                              PR    W40+           006W18+           004               000               000  //
PAGAUSProcter & Gamble Australia Pty          2PGPANPantene                                 BTQ2  7TWO Brisbane                                                                                       0000304566-000000141                    0000304566-00000014120240324               NNNNNYN20302130                            0000001500000031000000002790                                        Escape To The Country                                                                                                                               PR    W40+           005W18+           003               000               000  //
PAGAUSProcter & Gamble Australia Pty          2PGPANPantene                                 SAS2  7TWO Adelaide                                                                                       0000304566-000000147                    0000304566-00000014720240324               YNNNNNN19402020                            0000001500000014000000001260                                        Vicar Of Dibley, The (Love And Marriage)                                                                                                            PR    W40+           023W18+           015               000               000  //
PAGAUSProcter & Gamble Australia Pty          2PGPANPantene                                 SAS2  7TWO Adelaide                                                                                       0000304566-000000148                    0000304566-00000014820240324               YNNNNNN20202135                            0000001500000015000000001350                                        Call The Midwife (Call The Midwife S4 Ep                                                                                                            PR    W40+           024W18+           017               000               000  //
PAGAUSProcter & Gamble Australia Pty          2PGPANPantene                                 SAS2  7TWO Adelaide                                                                                       0000304566-000000149                    0000304566-00000014920240324               YNNNNNN21352250                            0000001500000010000000000900                                        Call The Midwife (Call The Midwife S4 Ep                                                                                                            PR    W40+           017W18+           012               000               000  //
PAGAUSProcter & Gamble Australia Pty          2PGPANPantene                                 SAS2  7TWO Adelaide                                                                                       0000304566-000000150                    0000304566-00000015020240324               NYNNNNN18301930                            0000001500000019000000001710                                        Bargain Hunt                                                                                                                                        PR    W40+           020W18+           013               000               000  //
PAGAUSProcter & Gamble Australia Pty          2PGPANPantene                                 SAS2  7TWO Adelaide                                                                                       0000304566-000000151                    0000304566-00000015120240324               NYNNNNN18301930                            0000001500000019000000001710                                        Bargain Hunt                                                                                                                                        PR    W40+           020W18+           013               000               000  //
PAGAUSProcter & Gamble Australia Pty          2PGPANPantene                                 SAS2  7TWO Adelaide                                                                                       0000304566-000000152                    0000304566-00000015220240324               NYNNNNN19302030                            0000001500000023000000002070                                        Doc Martin                                                                                                                                          PR    W40+           029W18+           018               000               000  //
PAGAUSProcter & Gamble Australia Pty          2PGPANPantene                                 SAS2  7TWO Adelaide                                                                                       0000304566-000000153                    0000304566-00000015320240324               NYNNNNN19302030                            0000001500000023000000002070                                        Doc Martin                                                                                                                                          PR    W40+           029W18+           018               000               000  //
PAGAUSProcter & Gamble Australia Pty          2PGPANPantene                                 SAS2  7TWO Adelaide                                                                                       0000304566-000000157                    0000304566-00000015720240324               NYNNNNN20302230                            0000001500000011000000000990                                        Endeavour                                                                                                                                           PR    W40+           026W18+           017               000               000  //
PAGAUSProcter & Gamble Australia Pty          2PGPANPantene                                 SAS2  7TWO Adelaide                                                                                       0000304566-000000158                    0000304566-00000015820240324               NNYNNNN18301930                            0000001500000019000000001710                                        Bargain Hunt (Leominster / Hay 6)                                                                                                                   PR    W40+           021W18+           013               000               000  //
PAGAUSProcter & Gamble Australia Pty          2PGPANPantene                                 SAS2  7TWO Adelaide                                                                                       0000304566-000000159                    0000304566-00000015920240324               NNYNNNN18301930                            0000001500000019000000001710                                        Bargain Hunt                                                                                                                                        PR    W40+           021W18+           013               000               000  //
PAGAUSProcter & Gamble Australia Pty          2PGPANPantene                                 SAS2  7TWO Adelaide                                                                                       0000304566-000000161                    0000304566-00000016120240324               NNYNNNN19302030                            0000001500000011000000000990                                        Rosemary & Thyme                                                                                                                                    PR    W40+           019W18+           012               000               000  //
PAGAUSProcter & Gamble Australia Pty          2PGPANPantene                                 SAS2  7TWO Adelaide                                                                                       0000304566-000000162                    0000304566-00000016220240324               NNNYNNN18301930                            0000001500000019000000001710                                        Bargain Hunt                                                                                                                                        PR    W40+           023W18+           015               000               000  //
PAGAUSProcter & Gamble Australia Pty          2PGPANPantene                                 SAS2  7TWO Adelaide                                                                                       0000304566-000000163                    0000304566-00000016320240324               NNNYNNN19302030                            0000001500000012000000001080                                        Heartbeat                                                                                                                                           PR    W40+           023W18+           015               000               000  //
PAGAUSProcter & Gamble Australia Pty          2PGPANPantene                                 SAS2  7TWO Adelaide                                                                                       0000304566-000000164                    0000304566-00000016420240324               NNNYNNN19302045                            0000001500000012000000001080                                        Heartbeat (Fool For Love)                                                                                                                           PR    W40+           024W18+           015               000               000  //
PAGAUSProcter & Gamble Australia Pty          2PGPANPantene                                 SAS2  7TWO Adelaide                                                                                       0000304566-000000168                    0000304566-00000016820240324               NNNYNNN20302230                            0000001500000012000000001080                                        Lewis                                                                                                                                               PR    W40+           027W18+           017               000               000  //
PAGAUSProcter & Gamble Australia Pty          2PGPANPantene                                 SAS2  7TWO Adelaide                                                                                       0000304566-000000169                    0000304566-00000016920240324               NNNYNNN20452245                            0000001500000011000000000990                                        Lewis (Intelligent Design)                                                                                                                          PR    W40+           027W18+           017               000               000  //
PAGAUSProcter & Gamble Australia Pty          2PGPANPantene                                 SAS2  7TWO Adelaide                                                                                       0000304566-000000170                    0000304566-00000017020240324               NNNNYNN21302230                            0000001500000011000000000990                                        Murdoch Mysteries                                                                                                                                   PR    W40+           016W18+           010               000               000  //
PAGAUSProcter & Gamble Australia Pty          2PGPANPantene                                 SAS2  7TWO Adelaide                                                                                       0000304566-000000171                    0000304566-00000017120240324               NNNNYNN21302230                            0000001500000011000000000990                                        Coroner, The (The Fisherman's Tale)                                                                                                                 PR    W40+           016W18+           010               000               000  //
PAGAUSProcter & Gamble Australia Pty          2PGPANPantene                                 SAS2  7TWO Adelaide                                                                                       0000304566-000000172                    0000304566-00000017220240324               NNNNNYN20302130                            0000001500000013000000001170                                        Escape To The Country                                                                                                                               PR    W40+           021W18+           013               000               000  //
PAGAUSProcter & Gamble Australia Pty          2PGPANPantene                                 SAS2  7TWO Adelaide                                                                                       0000304566-000000174                    0000304566-00000017420240324               NNNNNNY18301930                            0000001500000018000000001620                                        The Highland Vet                                                                                                                                    PR    W40+           013W18+           008               000               000  //
PAGAUSProcter & Gamble Australia Pty          2PGPANPantene                                 SAS2  7TWO Adelaide                                                                                       0000304566-000000176                    0000304566-00000017620240324               NNNNNNY19302030                            0000001500000021000000001890                                        The Yorkshire Vet                                                                                                                                   PR    W40+           014W18+           009               000               000  //
PAGAUSProcter & Gamble Australia Pty          2PGPANPantene                                 SAS2  7TWO Adelaide                                                                                       0000304566-000000177                    0000304566-00000017720240324               NNNNNNY20302130                            0000001500000016000000001440                                        Escape To The Country (Herefordshire)                                                                                                               PR    W40+           014W18+           009               000               000  //
PAGAUSProcter & Gamble Australia Pty          2PGPANPantene                                 SAS2  7TWO Adelaide                                                                                       0000304566-000000178                    0000304566-00000017820240324               NNNNNNY20302130                            0000001500000016000000001440                                        Escape To The Country                                                                                                                               PR    W40+           014W18+           009               000               000  //
PAGAUSProcter & Gamble Australia Pty          2PGPANPantene                                 TVW2  7TWO Perth                                                                                          0000304566-000000179                    0000304566-00000017920240324               YNNNNNN19001940                            0000001500000033000000002970                                        Vicar Of Dibley, The (Celebrity Vicar)                                                                                                              PR    W40+           006W18+           004               000               000  //
PAGAUSProcter & Gamble Australia Pty          2PGPANPantene                                 TVW2  7TWO Perth                                                                                          0000304566-000000180                    0000304566-00000018020240324               YNNNNNN19001950                            0000001500000034000000003060                                        Escape To The Country                                                                                                                               PR    W40+           007W18+           004               000               000  //
PAGAUSProcter & Gamble Australia Pty          2PGPANPantene                                 TVW2  7TWO Perth                                                                                          0000304566-000000181                    0000304566-00000018120240324               YNNNNNN19302030                            0000001500000038000000003420                                        Escape To The Country                                                                                                                               PR    W40+           009W18+           006               000               000  //
PAGAUSProcter & Gamble Australia Pty          2PGPANPantene                                 TVW2  7TWO Perth                                                                                          0000304566-000000182                    0000304566-00000018220240324               YNNNNNN19402020                            0000001500000039000000003510                                        Vicar Of Dibley, The (Love And Marriage)                                                                                                            PR    W40+           009W18+           006               000               000  //
PAGAUSProcter & Gamble Australia Pty          2PGPANPantene                                 TVW2  7TWO Perth                                                                                          0000304566-000000183                    0000304566-00000018320240324               NYNNNNN18301930                            0000001500000022000000001980                                        Bargain Hunt                                                                                                                                        PR    W40+           015W18+           010               000               000  //
PAGAUSProcter & Gamble Australia Pty          2PGPANPantene                                 TVW2  7TWO Perth                                                                                          0000304566-000000184                    0000304566-00000018420240324               NYNNNNN19302030                            0000001500000023000000002070                                        Doc Martin                                                                                                                                          PR    W40+           011W18+           007               000               000  //
PAGAUSProcter & Gamble Australia Pty          2PGPANPantene                                 TVW2  7TWO Perth                                                                                          0000304566-000000185                    0000304566-00000018520240324               NYNNNNN19302030                            0000001500000023000000002070                                        Doc Martin                                                                                                                                          PR    W40+           011W18+           007               000               000  //
PAGAUSProcter & Gamble Australia Pty          2PGPANPantene                                 TVW2  7TWO Perth                                                                                          0000304566-000000186                    0000304566-00000018620240324               NNYNNNN18301930                            0000001500000022000000001980                                        Bargain Hunt (Leominster / Hay 6)                                                                                                                   PR    W40+           016W18+           010               000               000  //
PAGAUSProcter & Gamble Australia Pty          2PGPANPantene                                 TVW2  7TWO Perth                                                                                          0000304566-000000188                    0000304566-00000018820240324               NNYNNNN18301930                            0000001500000022000000001980                                        Bargain Hunt                                                                                                                                        PR    W40+           016W18+           010               000               000  //
PAGAUSProcter & Gamble Australia Pty          2PGPANPantene                                 TVW2  7TWO Perth                                                                                          0000304566-000000189                    0000304566-00000018920240324               NNYNNNN18301930                            0000001500000022000000001980                                        Bargain Hunt                                                                                                                                        PR    W40+           016W18+           010               000               000  //
PAGAUSProcter & Gamble Australia Pty          2PGPANPantene                                 TVW2  7TWO Perth                                                                                          0000304566-000000192                    0000304566-00000019220240324               NNYNNNN19302030                            0000001500000024000000002160                                        Rosemary & Thyme                                                                                                                                    PR    W40+           020W18+           012               000               000  //
PAGAUSProcter & Gamble Australia Pty          2PGPANPantene                                 TVW2  7TWO Perth                                                                                          0000304566-000000193                    0000304566-00000019320240324               NNYNNNN19302030                            0000001500000024000000002160                                        Rosemary & Thyme (Gongoozlers)                                                                                                                      PR    W40+           020W18+           012               000               000  //
PAGAUSProcter & Gamble Australia Pty          2PGPANPantene                                 TVW2  7TWO Perth                                                                                          0000304566-000000194                    0000304566-00000019420240324               NNNYNNN20452245                            0000001500000023000000002070                                        Lewis (Intelligent Design)                                                                                                                          PR    W40+           022W18+           014               000               000  //
PAGAUSProcter & Gamble Australia Pty          2PGPANPantene                                 TVW2  7TWO Perth                                                                                          0000304566-000000195                    0000304566-00000019520240324               NNNNYNN18301930                            0000001500000022000000001980                                        Bargain Hunt (Portobello / Kingston 15)                                                                                                             PR    W40+           015W18+           009               000               000  //
PAGAUSProcter & Gamble Australia Pty          2PGPANPantene                                 TVW2  7TWO Perth                                                                                          0000304566-000000197                    0000304566-00000019720240324               NNNNYNN18301930                            0000001500000022000000001980                                        Bargain Hunt                                                                                                                                        PR    W40+           015W18+           009               000               000  //
PAGAUSProcter & Gamble Australia Pty          2PGPANPantene                                 TVW2  7TWO Perth                                                                                          0000304566-000000198                    0000304566-00000019820240324               NNNNYNN19302030                            0000001500000031000000002790                                        FATHER BROWN                                                                                                                                        PR    W40+           016W18+           010               000               000  //
PAGAUSProcter & Gamble Australia Pty          2PGPANPantene                                 TVW2  7TWO Perth                                                                                          0000304566-000000201                    0000304566-00000020120240324               NNNNNYN18301930                            0000001500000022000000001980                                        Bargain Hunt                                                                                                                                        PR    W40+           017W18+           010               000               000  //
PAGAUSProcter & Gamble Australia Pty          2PGPANPantene                                 TVW2  7TWO Perth                                                                                          0000304566-000000202                    0000304566-00000020220240324               NNNNNYN19302030                            0000001500000032000000002880                                        Maternal (Maternal S1 Ep: 2)                                                                                                                        PR    W40+           015W18+           009               000               000  //
PAGAUSProcter & Gamble Australia Pty          2PGPANPantene                                 TVW2  7TWO Perth                                                                                          0000304566-000000204                    0000304566-00000020420240324               NNNNNYN20302130                            0000001500000033000000002970                                        Escape To The Country                                                                                                                               PR    W40+           012W18+           007               000               000  //
PAGAUSProcter & Gamble Australia Pty          2PGPANPantene                                 TVW2  7TWO Perth                                                                                          0000304566-000000205                    0000304566-00000020520240324               NNNNNNY18301930                            0000001500000022000000001980                                        The Highland Vet                                                                                                                                    PR    W40+           010W18+           006               000               000  //
PAGAUSProcter & Gamble Australia Pty          2PGPANPantene                                 ATNM8 ATN Mate Sydney                                                                                     0000304566-000000102                    0000304566-00000010220240324               NNYNNNN20302130                            0000001500000283000000025470                                        Mining Show                                                                                                                                         PR    W40+           006W18+           004               000               000  //
PAGAUSProcter & Gamble Australia Pty          2PGPANPantene                                 ATNM8 ATN Mate Sydney                                                                                     0000304566-000000103                    0000304566-00000010320240324               NNNYNNN19302000                            0000001500000201000000018090                                        Highway Patrol                                                                                                                                      PR    W40+           009W18+           005               000               000  //
PAGAUSProcter & Gamble Australia Pty          2PGPANPantene                                 ATNM8 ATN Mate Sydney                                                                                     0000304566-000000104                    0000304566-00000010420240324               NNNYNNN20002030                            0000001500000201000000018090                                        Highway Patrol                                                                                                                                      PR    W40+           008W18+           005               000               000  //
PAGAUSProcter & Gamble Australia Pty          2PGPANPantene                                 ATNM8 ATN Mate Sydney                                                                                     0000304566-000000105                    0000304566-00000010520240324               NNNYNNN20002030                            0000001500000201000000018090                                        Highway Patrol                                                                                                                                      PR    W40+           008W18+           005               000               000  //
PAGAUSProcter & Gamble Australia Pty          2PGPANPantene                                 HSVM8 HSV Mate Melbourne                                                                                  0000304566-000000112                    0000304566-00000011220240324               NNYNNNN20302130                            0000001500000201000000018090                                        Mining Show                                                                                                                                         PR    W40+           005W18+           003               000               000  //
PAGAUSProcter & Gamble Australia Pty          2PGPANPantene                                 HSVM8 HSV Mate Melbourne                                                                                  0000304566-000000113                    0000304566-00000011320240324               NNYNNNN20302130                            0000001500000201000000018090                                        Mining Show                                                                                                                                         PR    W40+           005W18+           003               000               000  //
PAGAUSProcter & Gamble Australia Pty          2PGPANPantene                                 HSVM8 HSV Mate Melbourne                                                                                  0000304566-000000114                    0000304566-00000011420240324               NNNYNNN19302000                            0000001500000179000000016110                                        Highway Patrol                                                                                                                                      PR    W40+           007W18+           005               000               000  //
PAGAUSProcter & Gamble Australia Pty          2PGPANPantene                                 SASM8 SAS Mate Adelaide                                                                                   0000304566-000000142                    0000304566-00000014220240324               NYNNNNN21302230                            0000001500000027000000002430                                        Swamp People                                                                                                                                        PR    W40+           005W18+           003               000               000  //
PAGAUSProcter & Gamble Australia Pty          2PGPANPantene                                 SASM8 SAS Mate Adelaide                                                                                   0000304566-000000143                    0000304566-00000014320240324               NNYNNNN19302030                            0000001500000035000000003150                                        Outback Truckers                                                                                                                                    PR    W40+           011W18+           007               000               000  //
PAGAUSProcter & Gamble Australia Pty          2PGPANPantene                                 SASM8 SAS Mate Adelaide                                                                                   0000304566-000000144                    0000304566-00000014420240324               NNYNNNN19302030                            0000001500000035000000003150                                        Outback Truckers                                                                                                                                    PR    W40+           011W18+           007               000               000  //
PAGAUSProcter & Gamble Australia Pty          2PGPANPantene                                 SASM8 SAS Mate Adelaide                                                                                   0000304566-000000145                    0000304566-00000014520240324               NNYNNNN19302030                            0000001500000035000000003150                                        Outback Truckers                                                                                                                                    PR    W40+           011W18+           007               000               000  //
PAGAUSProcter & Gamble Australia Pty          2PGPANPantene                                 SASM8 SAS Mate Adelaide                                                                                   0000304566-000000146                    0000304566-00000014620240324               NNYNNNN20302130                            0000001500000040000000003600                                        Mining Show                                                                                                                                         PR    W40+           014W18+           009               000               000  //
EOF//
