202401301052SEVNETSeven Network                           B00017R2SIT_SPARK FOUNDRY                                     000006000003750000                                        Simon Templar                 simon.templar@sevenaffiliatesale                                                                              Bill Flower                   bill.kecskes@cognizant.com                                            
A00037R2SIT_Hello Fresh                       EVPLAUEvery Plate AU                          SAS   7 Wagga                                                                                             0000028244-000000001                    0000028244-00000000120240204               NNNNNYN06000900                            0000001500000069000000006210                                        Sunrise                                                                                                                                             PR    P40+           012               000               000               000  //
A00037R2SIT_Hello Fresh                       EVPLAUEvery Plate AU                          SASS2 7 Wagga                                                                                             0000028244-000000002                    0000028244-00000000220240204               NNNNNYN06000900                            0000001500000069000000006210                                        Sunrise                                                                                                                                             PR    P40+           012               000               000               000  //
A00037R2SIT_Hello Fresh                       EVPLAUEvery Plate AU                          SAS76 7 Wagga                                                                                             0000028244-000000003                    0000028244-00000000320240204               NYNNNNN06000900                            0000001500000069000000006210                                        Sunrise                                                                                                                                             PR    P40+           012               000               000               000  //
A00037R2SIT_Hello Fresh                       EVPLAUEvery Plate AU                          BTQ   7 Wagga                                                                                             0000028244-000000004                    0000028244-00000000420240204               NNYNNNN06000900                            0000001500000069000000006210                                        Sunrise                                                                                                                                             PR    P40+           012               000               000               000  //
A00037R2SIT_Hello Fresh                       EVPLAUEvery Plate AU                          BTQS2 7 Wagga                                                                                             0000028244-000000005                    0000028244-00000000520240204               NNNYNNN06000900                            0000001500000069000000006210                                        Sunrise                                                                                                                                             PR    P40+           012               000               000               000  //
A00037R2SIT_Hello Fresh                       EVPLAUEvery Plate AU                          BTQ76 7 Wagga                                                                                             0000028244-000000006                    0000028244-00000000620240204               NNNNYNN06000900                            0000001500000069000000006210                                        Sunrise                                                                                                                                             PR    P40+           012               000               000               000  //
EOF//