202312191052SEVNETSeven Network                           B00017R2SIT_SPARK FOUNDRY                                     000009000003750000                                        Simon Templar                 simon.templar@sevenaffiliatesale                                                                              Bill Flower                   bill.kecskes@cognizant.com                                            
A00040R2SIT_WESTPAC BANKIN                    61    Activation                              SAS   7 Wagga                                                                                             0000028244-000000001                    0000028244-00000000120240107               NNNNNYN06000900                            0000001500000069000000006210                                        Sunrise                                                                                                                                             PR    002            012               000               000               000  //
A00040R2SIT_WESTPAC BANKIN                    61    Activation                              SASS2 7 Wagga                                                                                             0000028244-000000001                    0000028244-00000000120240107               NNNNNYN06000900                            0000003000000069000000006210                                        Sunrise                                                                                                                                             PR    002            012               000               000               000  //
A00040R2SIT_WESTPAC BANKIN                    61    Activation                              SAS76 7 Wagga                                                                                             0000028244-000000001                    0000028244-00000000120240114               NYNNNNN06000900                            0000001500000069000000006210                                        Sunrise                                                                                                                                             PR    002            012               000               000               000  //
A00040R2SIT_WESTPAC BANKIN                    61    Activation                              BTQ   7 Wagga                                                                                             0000028244-000000001                    0000028244-00000000120240114               NNYNNNN06000900                            0000001500000069000000006210                                        Sunrise                                                                                                                                             PR    002            012               000               000               000  //
A00040R2SIT_WESTPAC BANKIN                    61    Activation                              BTQS2 7 Wagga                                                                                             0000028244-000000001                    0000028244-00000000120240114               NNNYNNN06000900                            0000003000000069000000006210                                        Sunrise                                                                                                                                             PR    002            012               000               000               000  //
A00040R2SIT_WESTPAC BANKIN                    61    Activation                              BTQ76 7 Wagga                                                                                             0000028244-000000001                    0000028244-00000000120240107               NNNNYNN06000900                            0000001500000069000000006210                                        Sunrise                                                                                                                                             PR    002            012               000               000               000  //
A00040R2SIT_WESTPAC BANKIN                    61    Activation                              HSV   7 Wagga                                                                                             0000028244-000000001                    0000028244-00000000120240114               NNYNNNN06000900                            0000001500000069000000006210                                        Sunrise                                                                                                                                             PR    002            012               000               000               000  //
A00040R2SIT_WESTPAC BANKIN                    61    Activation                              HSVS2 7 Wagga                                                                                             0000028244-000000001                    0000028244-00000000120240114               NNNYNNN06000900                            0000003000000069000000006210                                        Sunrise                                                                                                                                             PR    002            012               000               000               000  //
A00040R2SIT_WESTPAC BANKIN                    61    Activation                              HSV76 7 Wagga                                                                                             0000028244-000000001                    0000028244-00000000120240107               NNNNYNN06000900                            0000001500000069000000006210                                        Sunrise                                                                                                                                             PR    002            012               000               000               000  //
EOF//